{
  "contractName": "SupplyChain",
  "abi": [
    {
      "anonymous": false,
      "inputs": [
        {
          "indexed": false,
          "internalType": "address",
          "name": "_address",
          "type": "address"
        },
        {
          "indexed": false,
          "internalType": "uint256",
          "name": "balance",
          "type": "uint256"
        }
      ],
      "name": "AddMoneyToAccount",
      "type": "event"
    },
    {
      "anonymous": false,
      "inputs": [
        {
          "indexed": false,
          "internalType": "uint256",
          "name": "sku",
          "type": "uint256"
        }
      ],
      "name": "LogForShipment",
      "type": "event"
    },
    {
      "anonymous": false,
      "inputs": [
        {
          "indexed": false,
          "internalType": "uint256",
          "name": "sku",
          "type": "uint256"
        }
      ],
      "name": "LogReceived",
      "type": "event"
    },
    {
      "anonymous": false,
      "inputs": [
        {
          "indexed": false,
          "internalType": "uint256",
          "name": "sku",
          "type": "uint256"
        }
      ],
      "name": "LogShipped",
      "type": "event"
    },
    {
      "inputs": [
        {
          "internalType": "address",
          "name": "",
          "type": "address"
        }
      ],
      "name": "balances",
      "outputs": [
        {
          "internalType": "uint256",
          "name": "",
          "type": "uint256"
        }
      ],
      "stateMutability": "view",
      "type": "function"
    },
    {
      "inputs": [
        {
          "internalType": "uint256",
          "name": "",
          "type": "uint256"
        }
      ],
      "name": "items",
      "outputs": [
        {
          "internalType": "string",
          "name": "name",
          "type": "string"
        },
        {
          "internalType": "uint256",
          "name": "sku",
          "type": "uint256"
        },
        {
          "internalType": "uint256",
          "name": "price",
          "type": "uint256"
        },
        {
          "internalType": "enum SupplyChain.State",
          "name": "state",
          "type": "uint8"
        },
        {
          "internalType": "address payable",
          "name": "sender",
          "type": "address"
        },
        {
          "internalType": "address payable",
          "name": "receiver",
          "type": "address"
        },
        {
          "internalType": "address payable",
          "name": "shipper",
          "type": "address"
        }
      ],
      "stateMutability": "view",
      "type": "function"
    },
    {
      "inputs": [],
      "name": "owner",
      "outputs": [
        {
          "internalType": "address",
          "name": "",
          "type": "address"
        }
      ],
      "stateMutability": "view",
      "type": "function"
    },
    {
      "inputs": [
        {
          "internalType": "address",
          "name": "dest",
          "type": "address"
        }
      ],
      "name": "payments",
      "outputs": [
        {
          "internalType": "uint256",
          "name": "",
          "type": "uint256"
        }
      ],
      "stateMutability": "view",
      "type": "function"
    },
    {
      "inputs": [],
      "name": "skuCount",
      "outputs": [
        {
          "internalType": "uint256",
          "name": "",
          "type": "uint256"
        }
      ],
      "stateMutability": "view",
      "type": "function"
    },
    {
      "inputs": [
        {
          "internalType": "address payable",
          "name": "payee",
          "type": "address"
        }
      ],
      "name": "withdrawPayments",
      "outputs": [],
      "stateMutability": "nonpayable",
      "type": "function"
    },
    {
      "inputs": [
        {
          "internalType": "string",
          "name": "_name",
          "type": "string"
        },
        {
          "internalType": "uint256",
          "name": "_price",
          "type": "uint256"
        },
        {
          "internalType": "address payable",
          "name": "_receiver",
          "type": "address"
        },
        {
          "internalType": "address payable",
          "name": "_shipper",
          "type": "address"
        }
      ],
      "name": "addItem",
      "outputs": [
        {
          "internalType": "bool",
          "name": "",
          "type": "bool"
        }
      ],
      "stateMutability": "payable",
      "type": "function"
    },
    {
      "inputs": [
        {
          "internalType": "uint256",
          "name": "sku",
          "type": "uint256"
        }
      ],
      "name": "shipItem",
      "outputs": [],
      "stateMutability": "nonpayable",
      "type": "function"
    },
    {
      "inputs": [
        {
          "internalType": "uint256",
          "name": "sku",
          "type": "uint256"
        }
      ],
      "name": "receiveItem",
      "outputs": [],
      "stateMutability": "nonpayable",
      "type": "function"
    },
    {
      "inputs": [
        {
          "internalType": "uint256",
          "name": "sku",
          "type": "uint256"
        }
      ],
      "name": "payShipper",
      "outputs": [],
      "stateMutability": "nonpayable",
      "type": "function"
    },
    {
      "inputs": [
        {
          "internalType": "uint256",
          "name": "_sku",
          "type": "uint256"
        }
      ],
      "name": "fetchItem",
      "outputs": [
        {
          "internalType": "string",
          "name": "name",
          "type": "string"
        },
        {
          "internalType": "uint256",
          "name": "sku",
          "type": "uint256"
        },
        {
          "internalType": "uint256",
          "name": "price",
          "type": "uint256"
        },
        {
          "internalType": "uint256",
          "name": "state",
          "type": "uint256"
        },
        {
          "internalType": "address",
          "name": "sender",
          "type": "address"
        },
        {
          "internalType": "address",
          "name": "receiver",
          "type": "address"
        },
        {
          "internalType": "address",
          "name": "shipper",
          "type": "address"
        }
      ],
      "stateMutability": "view",
      "type": "function"
    },
    {
      "inputs": [],
      "name": "getBalance",
      "outputs": [
        {
          "internalType": "uint256",
          "name": "",
          "type": "uint256"
        }
      ],
      "stateMutability": "view",
      "type": "function"
    }
  ],
  "bytecode": "0x60a060405234801561001057600080fd5b5060405161001d90610072565b604051809103906000f080158015610039573d6000803e3d6000fd5b5073ffffffffffffffffffffffffffffffffffffffff1660808173ffffffffffffffffffffffffffffffffffffffff168152505061007f565b610d168061197183390190565b6080516118c96100a8600039600081816105c701528181610cf40152610eb901526118c96000f3fe6080604052600436106100a65760003560e01c8063a26be99911610064578063a26be999146101c2578063ad4b9cfb146101eb578063bd2f46cd1461022e578063bfb231d214610257578063e2982c211461029a578063f61c899a146102d7576100a6565b80628f07d0146100ab57806312065fe0146100db578063227024731461010657806327e235e31461013157806331b3eb941461016e5780638da5cb5b14610197575b600080fd5b6100c560048036038101906100c091906111d8565b610300565b6040516100d29190611276565b60405180910390f35b3480156100e757600080fd5b506100f0610588565b6040516100fd91906112a0565b60405180910390f35b34801561011257600080fd5b5061011b6105a7565b60405161012891906112a0565b60405180910390f35b34801561013d57600080fd5b50610158600480360381019061015391906112f9565b6105ad565b60405161016591906112a0565b60405180910390f35b34801561017a57600080fd5b5061019560048036038101906101909190611326565b6105c5565b005b3480156101a357600080fd5b506101ac610653565b6040516101b99190611362565b60405180910390f35b3480156101ce57600080fd5b506101e960048036038101906101e4919061137d565b610677565b005b3480156101f757600080fd5b50610212600480360381019061020d919061137d565b6107b5565b6040516102259796959493929190611432565b60405180910390f35b34801561023a57600080fd5b506102556004803603810190610250919061137d565b610981565b005b34801561026357600080fd5b5061027e6004803603810190610279919061137d565b610bb9565b604051610291979695949392919061152e565b60405180910390f35b3480156102a657600080fd5b506102c160048036038101906102bc91906112f9565b610cf0565b6040516102ce91906112a0565b60405180910390f35b3480156102e357600080fd5b506102fe60048036038101906102f9919061137d565b610d93565b005b60006040518060e00160405280868152602001600154815260200185815260200160006003811115610335576103346114a8565b5b81526020013373ffffffffffffffffffffffffffffffffffffffff1681526020018473ffffffffffffffffffffffffffffffffffffffff1681526020018373ffffffffffffffffffffffffffffffffffffffff1681525060026000600154815260200190815260200160002060008201518160000190805190602001906103bd929190610f47565b50602082015181600101556040820151816002015560608201518160030160006101000a81548160ff021916908360038111156103fd576103fc6114a8565b5b021790555060808201518160030160016101000a81548173ffffffffffffffffffffffffffffffffffffffff021916908373ffffffffffffffffffffffffffffffffffffffff16021790555060a08201518160040160006101000a81548173ffffffffffffffffffffffffffffffffffffffff021916908373ffffffffffffffffffffffffffffffffffffffff16021790555060c08201518160050160006101000a81548173ffffffffffffffffffffffffffffffffffffffff021916908373ffffffffffffffffffffffffffffffffffffffff160217905550905050600180546104e891906115d3565b6001819055507f68115c2157c11331c6df15a99923b0f8bd92bfd0be2df04f7f36c145dc2473e360015460405161051f91906112a0565b60405180910390a17fac020a209791e2243482cf85c484e30a3ed8965960f440485c94c46aaa3c774e8285604051610558929190611688565b60405180910390a18347111561057b576105728285610eb7565b60019050610580565b600090505b949350505050565b60003373ffffffffffffffffffffffffffffffffffffffff1631905090565b60015481565b60036020528060005260406000206000915090505481565b7f000000000000000000000000000000000000000000000000000000000000000073ffffffffffffffffffffffffffffffffffffffff166351cff8d9826040518263ffffffff1660e01b815260040161061e91906116b1565b600060405180830381600087803b15801561063857600080fd5b505af115801561064c573d6000803e3d6000fd5b5050505050565b60008054906101000a900473ffffffffffffffffffffffffffffffffffffffff1681565b806001600381111561068c5761068b6114a8565b5b6002600083815260200190815260200160002060030160009054906101000a900460ff1660038111156106c2576106c16114a8565b5b146106cc57600080fd5b6002600083815260200190815260200160002060040160009054906101000a900473ffffffffffffffffffffffffffffffffffffffff168073ffffffffffffffffffffffffffffffffffffffff163373ffffffffffffffffffffffffffffffffffffffff161461073b57600080fd5b600280600085815260200190815260200160002060030160006101000a81548160ff02191690836003811115610774576107736114a8565b5b02179055507f5a98827d06afe0e04647b3aed26f1ffb77171ad9ac41603c4ef623a6638798c1836040516107a891906112a0565b60405180910390a1505050565b60606000806000806000806002600089815260200190815260200160002060000180546107e1906116fb565b80601f016020809104026020016040519081016040528092919081815260200182805461080d906116fb565b801561085a5780601f1061082f5761010080835404028352916020019161085a565b820191906000526020600020905b81548152906001019060200180831161083d57829003601f168201915b5050505050965060026000898152602001908152602001600020600101549550600260008981526020019081526020016000206002015494506002600089815260200190815260200160002060030160009054906101000a900460ff1660038111156108c9576108c86114a8565b5b93506002600089815260200190815260200160002060030160019054906101000a900473ffffffffffffffffffffffffffffffffffffffff1692506002600089815260200190815260200160002060040160009054906101000a900473ffffffffffffffffffffffffffffffffffffffff1691506002600089815260200190815260200160002060050160009054906101000a900473ffffffffffffffffffffffffffffffffffffffff169050919395979092949650565b8060026003811115610996576109956114a8565b5b6002600083815260200190815260200160002060030160009054906101000a900460ff1660038111156109cc576109cb6114a8565b5b146109d657600080fd5b600260038111156109ea576109e96114a8565b5b6002600084815260200190815260200160002060030160009054906101000a900460ff166003811115610a2057610a1f6114a8565b5b1415610a61576040517f08c379a0000000000000000000000000000000000000000000000000000000008152600401610a589061179f565b60405180910390fd5b3373ffffffffffffffffffffffffffffffffffffffff166002600084815260200190815260200160002060050160009054906101000a900473ffffffffffffffffffffffffffffffffffffffff1673ffffffffffffffffffffffffffffffffffffffff161415610b06576040517f08c379a0000000000000000000000000000000000000000000000000000000008152600401610afd90611831565b60405180910390fd5b60026000838152602001908152602001600020600201546002600084815260200190815260200160002060030160019054906101000a900473ffffffffffffffffffffffffffffffffffffffff1673ffffffffffffffffffffffffffffffffffffffff16311015610b7657600080fd5b60036002600084815260200190815260200160002060030160006101000a81548160ff02191690836003811115610bb057610baf6114a8565b5b02179055505050565b6002602052806000526040600020600091509050806000018054610bdc906116fb565b80601f0160208091040260200160405190810160405280929190818152602001828054610c08906116fb565b8015610c555780601f10610c2a57610100808354040283529160200191610c55565b820191906000526020600020905b815481529060010190602001808311610c3857829003601f168201915b5050505050908060010154908060020154908060030160009054906101000a900460ff16908060030160019054906101000a900473ffffffffffffffffffffffffffffffffffffffff16908060040160009054906101000a900473ffffffffffffffffffffffffffffffffffffffff16908060050160009054906101000a900473ffffffffffffffffffffffffffffffffffffffff16905087565b60007f000000000000000000000000000000000000000000000000000000000000000073ffffffffffffffffffffffffffffffffffffffff1663e3a9db1a836040518263ffffffff1660e01b8152600401610d4b9190611362565b602060405180830381865afa158015610d68573d6000803e3d6000fd5b505050506040513d601f19601f82011682018060405250810190610d8c9190611866565b9050919050565b8060006003811115610da857610da76114a8565b5b6002600083815260200190815260200160002060030160009054906101000a900460ff166003811115610dde57610ddd6114a8565b5b14610de857600080fd5b336002600084815260200190815260200160002060050160006101000a81548173ffffffffffffffffffffffffffffffffffffffff021916908373ffffffffffffffffffffffffffffffffffffffff16021790555060016002600084815260200190815260200160002060030160006101000a81548160ff02191690836003811115610e7757610e766114a8565b5b02179055507feaf695929fec8154f0eafe7248c0e16855eb9ad09e623be92f669e544d53e85682604051610eab91906112a0565b60405180910390a15050565b7f000000000000000000000000000000000000000000000000000000000000000073ffffffffffffffffffffffffffffffffffffffff1663f340fa0182846040518363ffffffff1660e01b8152600401610f119190611362565b6000604051808303818588803b158015610f2a57600080fd5b505af1158015610f3e573d6000803e3d6000fd5b50505050505050565b828054610f53906116fb565b90600052602060002090601f016020900481019282610f755760008555610fbc565b82601f10610f8e57805160ff1916838001178555610fbc565b82800160010185558215610fbc579182015b82811115610fbb578251825591602001919060010190610fa0565b5b509050610fc99190610fcd565b5090565b5b80821115610fe6576000816000905550600101610fce565b5090565b6000604051905090565b600080fd5b600080fd5b600080fd5b600080fd5b6000601f19601f8301169050919050565b7f4e487b7100000000000000000000000000000000000000000000000000000000600052604160045260246000fd5b61105182611008565b810181811067ffffffffffffffff821117156110705761106f611019565b5b80604052505050565b6000611083610fea565b905061108f8282611048565b919050565b600067ffffffffffffffff8211156110af576110ae611019565b5b6110b882611008565b9050602081019050919050565b82818337600083830152505050565b60006110e76110e284611094565b611079565b90508281526020810184848401111561110357611102611003565b5b61110e8482856110c5565b509392505050565b600082601f83011261112b5761112a610ffe565b5b813561113b8482602086016110d4565b91505092915050565b6000819050919050565b61115781611144565b811461116257600080fd5b50565b6000813590506111748161114e565b92915050565b600073ffffffffffffffffffffffffffffffffffffffff82169050919050565b60006111a58261117a565b9050919050565b6111b58161119a565b81146111c057600080fd5b50565b6000813590506111d2816111ac565b92915050565b600080600080608085870312156111f2576111f1610ff4565b5b600085013567ffffffffffffffff8111156112105761120f610ff9565b5b61121c87828801611116565b945050602061122d87828801611165565b935050604061123e878288016111c3565b925050606061124f878288016111c3565b91505092959194509250565b60008115159050919050565b6112708161125b565b82525050565b600060208201905061128b6000830184611267565b92915050565b61129a81611144565b82525050565b60006020820190506112b56000830184611291565b92915050565b60006112c68261117a565b9050919050565b6112d6816112bb565b81146112e157600080fd5b50565b6000813590506112f3816112cd565b92915050565b60006020828403121561130f5761130e610ff4565b5b600061131d848285016112e4565b91505092915050565b60006020828403121561133c5761133b610ff4565b5b600061134a848285016111c3565b91505092915050565b61135c816112bb565b82525050565b60006020820190506113776000830184611353565b92915050565b60006020828403121561139357611392610ff4565b5b60006113a184828501611165565b91505092915050565b600081519050919050565b600082825260208201905092915050565b60005b838110156113e45780820151818401526020810190506113c9565b838111156113f3576000848401525b50505050565b6000611404826113aa565b61140e81856113b5565b935061141e8185602086016113c6565b61142781611008565b840191505092915050565b600060e082019050818103600083015261144c818a6113f9565b905061145b6020830189611291565b6114686040830188611291565b6114756060830187611291565b6114826080830186611353565b61148f60a0830185611353565b61149c60c0830184611353565b98975050505050505050565b7f4e487b7100000000000000000000000000000000000000000000000000000000600052602160045260246000fd5b600481106114e8576114e76114a8565b5b50565b60008190506114f9826114d7565b919050565b6000611509826114eb565b9050919050565b611519816114fe565b82525050565b6115288161119a565b82525050565b600060e0820190508181036000830152611548818a6113f9565b90506115576020830189611291565b6115646040830188611291565b6115716060830187611510565b61157e608083018661151f565b61158b60a083018561151f565b61159860c083018461151f565b98975050505050505050565b7f4e487b7100000000000000000000000000000000000000000000000000000000600052601160045260246000fd5b60006115de82611144565b91506115e983611144565b9250827fffffffffffffffffffffffffffffffffffffffffffffffffffffffffffffffff0382111561161e5761161d6115a4565b5b828201905092915050565b6000819050919050565b600061164e6116496116448461117a565b611629565b61117a565b9050919050565b600061166082611633565b9050919050565b600061167282611655565b9050919050565b61168281611667565b82525050565b600060408201905061169d6000830185611679565b6116aa6020830184611291565b9392505050565b60006020820190506116c6600083018461151f565b92915050565b7f4e487b7100000000000000000000000000000000000000000000000000000000600052602260045260246000fd5b6000600282049050600182168061171357607f821691505b60208210811415611727576117266116cc565b5b50919050565b7f466972737420796f75206861766520746f206c656e6420746865207061636b6160008201527f6765000000000000000000000000000000000000000000000000000000000000602082015250565b60006117896022836113b5565b91506117948261172d565b604082019050919050565b600060208201905081810360008301526117b88161177c565b9050919050565b7f5468652073656e64657220697320746865206f6e6c79206f6e652077686f206360008201527f616e206d616b6520746865207472616e73616374696f6e000000000000000000602082015250565b600061181b6037836113b5565b9150611826826117bf565b604082019050919050565b6000602082019050818103600083015261184a8161180e565b9050919050565b6000815190506118608161114e565b92915050565b60006020828403121561187c5761187b610ff4565b5b600061188a84828501611851565b9150509291505056fea264697066735822122074748aad535cbaf42c816c571e866436e446be8e97faa8757e709cc76c3dc19964736f6c634300080a0033608060405234801561001057600080fd5b5061002d61002261003260201b60201c565b61003a60201b60201c565b6100fe565b600033905090565b60008060009054906101000a900473ffffffffffffffffffffffffffffffffffffffff169050816000806101000a81548173ffffffffffffffffffffffffffffffffffffffff021916908373ffffffffffffffffffffffffffffffffffffffff1602179055508173ffffffffffffffffffffffffffffffffffffffff168173ffffffffffffffffffffffffffffffffffffffff167f8be0079c531659141344cd1fd0a4f28419497f9722a3daafe3b4186f6b6457e060405160405180910390a35050565b610c098061010d6000396000f3fe6080604052600436106100555760003560e01c806351cff8d91461005a578063715018a6146100835780638da5cb5b1461009a578063e3a9db1a146100c5578063f2fde38b14610102578063f340fa011461012b575b600080fd5b34801561006657600080fd5b50610081600480360381019061007c9190610805565b610147565b005b34801561008f57600080fd5b506100986102c7565b005b3480156100a657600080fd5b506100af61034f565b6040516100bc9190610853565b60405180910390f35b3480156100d157600080fd5b506100ec60048036038101906100e7919061089a565b610378565b6040516100f991906108e0565b60405180910390f35b34801561010e57600080fd5b506101296004803603810190610124919061089a565b6103c1565b005b6101456004803603810190610140919061089a565b6104b9565b005b61014f6105e2565b73ffffffffffffffffffffffffffffffffffffffff1661016d61034f565b73ffffffffffffffffffffffffffffffffffffffff16146101c3576040517f08c379a00000000000000000000000000000000000000000000000000000000081526004016101ba90610958565b60405180910390fd5b6000600160008373ffffffffffffffffffffffffffffffffffffffff1673ffffffffffffffffffffffffffffffffffffffff1681526020019081526020016000205490506000600160008473ffffffffffffffffffffffffffffffffffffffff1673ffffffffffffffffffffffffffffffffffffffff16815260200190815260200160002081905550610275818373ffffffffffffffffffffffffffffffffffffffff166105ea90919063ffffffff16565b8173ffffffffffffffffffffffffffffffffffffffff167f7084f5476618d8e60b11ef0d7d3f06914655adb8793e28ff7f018d4c76d505d5826040516102bb91906108e0565b60405180910390a25050565b6102cf6105e2565b73ffffffffffffffffffffffffffffffffffffffff166102ed61034f565b73ffffffffffffffffffffffffffffffffffffffff1614610343576040517f08c379a000000000000000000000000000000000000000000000000000000000815260040161033a90610958565b60405180910390fd5b61034d60006106de565b565b60008060009054906101000a900473ffffffffffffffffffffffffffffffffffffffff16905090565b6000600160008373ffffffffffffffffffffffffffffffffffffffff1673ffffffffffffffffffffffffffffffffffffffff168152602001908152602001600020549050919050565b6103c96105e2565b73ffffffffffffffffffffffffffffffffffffffff166103e761034f565b73ffffffffffffffffffffffffffffffffffffffff161461043d576040517f08c379a000000000000000000000000000000000000000000000000000000000815260040161043490610958565b60405180910390fd5b600073ffffffffffffffffffffffffffffffffffffffff168173ffffffffffffffffffffffffffffffffffffffff1614156104ad576040517f08c379a00000000000000000000000000000000000000000000000000000000081526004016104a4906109ea565b60405180910390fd5b6104b6816106de565b50565b6104c16105e2565b73ffffffffffffffffffffffffffffffffffffffff166104df61034f565b73ffffffffffffffffffffffffffffffffffffffff1614610535576040517f08c379a000000000000000000000000000000000000000000000000000000000815260040161052c90610958565b60405180910390fd5b600034905080600160008473ffffffffffffffffffffffffffffffffffffffff1673ffffffffffffffffffffffffffffffffffffffff16815260200190815260200160002060008282546105899190610a39565b925050819055508173ffffffffffffffffffffffffffffffffffffffff167f2da466a7b24304f47e87fa2e1e5a81b9831ce54fec19055ce277ca2f39ba42c4826040516105d691906108e0565b60405180910390a25050565b600033905090565b8047101561062d576040517f08c379a000000000000000000000000000000000000000000000000000000000815260040161062490610adb565b60405180910390fd5b60008273ffffffffffffffffffffffffffffffffffffffff168260405161065390610b2c565b60006040518083038185875af1925050503d8060008114610690576040519150601f19603f3d011682016040523d82523d6000602084013e610695565b606091505b50509050806106d9576040517f08c379a00000000000000000000000000000000000000000000000000000000081526004016106d090610bb3565b60405180910390fd5b505050565b60008060009054906101000a900473ffffffffffffffffffffffffffffffffffffffff169050816000806101000a81548173ffffffffffffffffffffffffffffffffffffffff021916908373ffffffffffffffffffffffffffffffffffffffff1602179055508173ffffffffffffffffffffffffffffffffffffffff168173ffffffffffffffffffffffffffffffffffffffff167f8be0079c531659141344cd1fd0a4f28419497f9722a3daafe3b4186f6b6457e060405160405180910390a35050565b600080fd5b600073ffffffffffffffffffffffffffffffffffffffff82169050919050565b60006107d2826107a7565b9050919050565b6107e2816107c7565b81146107ed57600080fd5b50565b6000813590506107ff816107d9565b92915050565b60006020828403121561081b5761081a6107a2565b5b6000610829848285016107f0565b91505092915050565b600061083d826107a7565b9050919050565b61084d81610832565b82525050565b60006020820190506108686000830184610844565b92915050565b61087781610832565b811461088257600080fd5b50565b6000813590506108948161086e565b92915050565b6000602082840312156108b0576108af6107a2565b5b60006108be84828501610885565b91505092915050565b6000819050919050565b6108da816108c7565b82525050565b60006020820190506108f560008301846108d1565b92915050565b600082825260208201905092915050565b7f4f776e61626c653a2063616c6c6572206973206e6f7420746865206f776e6572600082015250565b60006109426020836108fb565b915061094d8261090c565b602082019050919050565b6000602082019050818103600083015261097181610935565b9050919050565b7f4f776e61626c653a206e6577206f776e657220697320746865207a65726f206160008201527f6464726573730000000000000000000000000000000000000000000000000000602082015250565b60006109d46026836108fb565b91506109df82610978565b604082019050919050565b60006020820190508181036000830152610a03816109c7565b9050919050565b7f4e487b7100000000000000000000000000000000000000000000000000000000600052601160045260246000fd5b6000610a44826108c7565b9150610a4f836108c7565b9250827fffffffffffffffffffffffffffffffffffffffffffffffffffffffffffffffff03821115610a8457610a83610a0a565b5b828201905092915050565b7f416464726573733a20696e73756666696369656e742062616c616e6365000000600082015250565b6000610ac5601d836108fb565b9150610ad082610a8f565b602082019050919050565b60006020820190508181036000830152610af481610ab8565b9050919050565b600081905092915050565b50565b6000610b16600083610afb565b9150610b2182610b06565b600082019050919050565b6000610b3782610b09565b9150819050919050565b7f416464726573733a20756e61626c6520746f2073656e642076616c75652c207260008201527f6563697069656e74206d61792068617665207265766572746564000000000000602082015250565b6000610b9d603a836108fb565b9150610ba882610b41565b604082019050919050565b60006020820190508181036000830152610bcc81610b90565b905091905056fea26469706673582212205129b7a3f85a5490faa843d165483789a2bfba2f3e8947564cc0ac8e4649629564736f6c634300080a0033",
  "immutableReferences": {
    "110": [
      {
        "length": 32,
        "start": 1479
      },
      {
        "length": 32,
        "start": 3316
      },
      {
        "length": 32,
        "start": 3769
      }
    ]
  },
  "source": "pragma solidity ^0.8.0;\r\n\r\nimport \"@openzeppelin/contracts/security/PullPayment.sol\";\r\n\r\ncontract SupplyChain is PullPayment {\r\n\r\n  // <owner>\r\n  address public owner;\r\n\r\n  // <skuCount>\r\n  uint public skuCount;\r\n\r\n  // <items mapping>\r\n  mapping(uint => Item) public items;\r\n\r\n  mapping(address => uint)  public balances;\r\n\r\n  // <enum State: ForSale, Sold, Shipped, Received>\r\n  // ForSale,\r\n  // Sold,\r\n  enum State {\r\n    ForShipment,\r\n    Shipped,\r\n    Received, \r\n    ShipperPaid\r\n  }\r\n\r\n  // <struct Item: name, sku, price, state, sender, and receiver>\r\n  struct Item {\r\n    string name;\r\n    uint sku;\r\n    uint256 price;\r\n    State state;\r\n    address payable sender;\r\n    address payable receiver;\r\n    address payable shipper; \r\n  }\r\n\r\n  struct Balance {\r\n    uint charged;\r\n    uint toCollect;\r\n  }\r\n  /* \r\n   * Events\r\n   */\r\n\r\n  // // <LogForSale event: sku arg>\r\n  // event LogForSale(uint sku);\r\n\r\n  // // <LogSold event: sku arg>\r\n  // event LogSold(uint sku);\r\n\r\n  // <logForShipment event: sku arg>\r\n  event LogForShipment(uint sku);\r\n\r\n  // <LogShipped event: sku arg>\r\n  event LogShipped(uint sku);\r\n\r\n  // <LogReceived event: sku arg>\r\n  event LogReceived(uint sku);\r\n\r\n  event AddMoneyToAccount(address _address, uint balance);  \r\n\r\n  /* \r\n   * Modifiers\r\n   */\r\n\r\n  // Create a modifer, `isOwner` that checks if the msg.sender is the owner of the contract\r\n\r\n  // <modifier: isOwner\r\n  modifier isOwner (address _address) { \r\n    require (msg.sender == owner); \r\n    _;\r\n  }\r\n\r\n  modifier verifyCaller (address _address) { \r\n    require (msg.sender == _address); \r\n    _;\r\n  }\r\n\r\n  modifier paidEnough(uint _price) { \r\n    require(msg.value >= _price); \r\n    _;\r\n  }\r\n\r\n  // modifier checkValue(uint _sku) {\r\n  //   //refund them after pay for item (why it is before, _ checks for logic before func)\r\n  //   _;\r\n  //   uint _price = items[_sku].price;\r\n  //   uint amountToRefund = msg.value - _price;\r\n  //   items[_sku].receiver.transfer(amountToRefund);\r\n  // }\r\n\r\n  // modifier forSale()\r\n  //  modifier forSale(uint _sku) {\r\n  //   require(items[_sku].state == State.ForSale); \r\n  //   require(items[_sku].sender != address(0)); \r\n  //   _;\r\n  // }\r\n\r\n  //  modifier sold(uint _sku) {\r\n  //   require(items[_sku].state == State.Sold); \r\n  //   _;\r\n  // }\r\n  // modifier sold(uint _sku) \r\n  // modifier shipped(uint _sku) \r\n\r\n  modifier forShipment (uint _sku) {\r\n    require(items[_sku].state == State.ForShipment); \r\n     //   require(items[_sku].sender != address(0)); \r\n    _;\r\n  }\r\n   modifier shipped(uint _sku) {\r\n    require(items[_sku].state == State.Shipped); \r\n    _;\r\n  }\r\n  // modifier received(uint _sku) \r\n   modifier received(uint _sku) {\r\n    require(items[_sku].state == State.Received); \r\n    _;\r\n  }\r\n\r\n  // constructor()  PullPayment()public{\r\n  //   // 1. Set the owner to the transaction sender\r\n  //   owner = msg.sender;\r\n  //   // 2. Initialize the sku count to 0. Question, is this necessary?\r\n  //   skuCount = 0;\r\n  // }\r\n\r\n  function addItem(string memory _name, uint256 _price, address payable _receiver, address payable _shipper) public payable returns (bool) {\r\n    items[skuCount] = Item({\r\n      name: _name, \r\n      sku: skuCount, \r\n      price: _price, \r\n      state: State.ForShipment, \r\n      sender: payable(msg.sender), \r\n      receiver: payable(_receiver),\r\n      shipper: payable(_shipper)\r\n    });\r\n\r\n    \r\n    skuCount = skuCount + 1;\r\n    emit LogForShipment(skuCount);\r\n    emit AddMoneyToAccount(_shipper, _price);\r\n    if(address(this).balance > _price ){\r\n      _asyncTransfer(_shipper, _price );\r\n      return true;\r\n    }else{\r\n      return false;\r\n    }\r\n    \r\n  }\r\n\r\n  // function _asyncTransfer(address dest, uint256 amount) internal override{\r\n  //   emit AddMoneyToAccount(dest, amount);\r\n  //   super._asyncTransfer(dest, amount);\r\n  // }\r\n\r\n  function shipItem(uint sku) public forShipment(sku) {\r\n    items[sku].shipper = payable(msg.sender);\r\n    items[sku].state = State.Shipped;\r\n    emit LogShipped(sku);\r\n  }\r\n\r\n  function receiveItem(uint sku) public shipped(sku) verifyCaller(items[sku].receiver){\r\n    items[sku].state = State.Received;\r\n    emit LogReceived(sku);\r\n  }\r\n\r\n  function payShipper(uint sku) public received(sku) {\r\n    require(items[sku].state != State.Received, \"First you have to lend the package\");\r\n    require(items[sku].shipper != msg.sender, \"The sender is the only one who can make the transaction\");\r\n    require(address(items[sku].sender).balance >= items[sku].price);\r\n    // sendMoney(items[sku].shipper, items[sku].price);\r\n    items[sku].state = State.ShipperPaid;\r\n  }\r\n\r\n   function fetchItem(uint _sku) public view \r\n     returns (string memory name, uint sku, uint price, uint state, address sender, address receiver, address shipper)\r\n   {\r\n     name = items[_sku].name; \r\n     sku = items[_sku].sku; \r\n     price = items[_sku].price; \r\n     state = uint(items[_sku].state); \r\n     sender = items[_sku].sender; \r\n     receiver = items[_sku].receiver; \r\n     shipper = items[_sku].shipper;\r\n     return (name, sku, price, state, sender, receiver, shipper); \r\n  } \r\n\r\n   function getBalance() public view \r\n    returns (uint256)\r\n  {\r\n    return (msg.sender.balance);\r\n  }\r\n\r\n  // function sendMoney(address payable _to, uint ethValue) public payable{\r\n  //   // Call returns a boolean value indicating success or failure.\r\n  //   // This is the current recommended method to use.\r\n  //   (bool sent, bytes memory data) = _to.call{value: ethValue}(\"\");\r\n  //   require(sent, \"Failed to send Ether\");\r\n  // }\r\n\r\n\r\n  // https://docs.openzeppelin.com/contracts/4.x/api/security\r\n  // https://github.com/OpenZeppelin/openzeppelin-contracts/blob/master/README.md#installing-openzeppelin\r\n}\r\n",
  "sourcePath": "C:\\Users\\usuario\\cryptos\\blockchain-developer-bootcamp-final-project\\contracts\\SupplyChain.sol",
  "compiler": {
    "name": "solc",
    "version": "0.8.10+commit.fc410830.Emscripten.clang"
  },
  "schemaVersion": "3.4.3",
  "updatedAt": "2021-11-24T09:18:12.802Z",
  "devdoc": {
    "kind": "dev",
    "methods": {
      "payments(address)": {
        "details": "Returns the payments owed to an address.",
        "params": {
          "dest": "The creditor's address."
        }
      },
      "withdrawPayments(address)": {
        "details": "Withdraw accumulated payments, forwarding all gas to the recipient. Note that _any_ account can call this function, not just the `payee`. This means that contracts unaware of the `PullPayment` protocol can still receive funds this way, by having a separate account call {withdrawPayments}. WARNING: Forwarding all gas opens the door to reentrancy vulnerabilities. Make sure you trust the recipient, or are either following the checks-effects-interactions pattern or using {ReentrancyGuard}.",
        "params": {
          "payee": "Whose payments will be withdrawn."
        }
      }
    },
    "version": 1
  },
  "userdoc": {
    "kind": "user",
    "methods": {},
    "version": 1
  }
}