{
  "contractName": "SupplyChain",
  "abi": [
    {
      "anonymous": false,
      "inputs": [
        {
          "indexed": false,
          "internalType": "address",
          "name": "_address",
          "type": "address"
        },
        {
          "indexed": false,
          "internalType": "uint256",
          "name": "balance",
          "type": "uint256"
        }
      ],
      "name": "AddMoneyToAccount",
      "type": "event"
    },
    {
      "anonymous": false,
      "inputs": [
        {
          "components": [
            {
              "internalType": "string",
              "name": "name",
              "type": "string"
            },
            {
              "internalType": "uint256",
              "name": "sku",
              "type": "uint256"
            },
            {
              "internalType": "uint256",
              "name": "price",
              "type": "uint256"
            },
            {
              "internalType": "enum SupplyChain.State",
              "name": "state",
              "type": "uint8"
            },
            {
              "internalType": "address payable",
              "name": "sender",
              "type": "address"
            },
            {
              "internalType": "address payable",
              "name": "receiver",
              "type": "address"
            },
            {
              "internalType": "address payable",
              "name": "shipper",
              "type": "address"
            }
          ],
          "indexed": false,
          "internalType": "struct SupplyChain.Item",
          "name": "item",
          "type": "tuple"
        }
      ],
      "name": "ItemChange",
      "type": "event"
    },
    {
      "anonymous": false,
      "inputs": [
        {
          "indexed": false,
          "internalType": "uint256",
          "name": "sku",
          "type": "uint256"
        }
      ],
      "name": "LogForShipment",
      "type": "event"
    },
    {
      "anonymous": false,
      "inputs": [
        {
          "indexed": false,
          "internalType": "uint256",
          "name": "sku",
          "type": "uint256"
        }
      ],
      "name": "LogReceived",
      "type": "event"
    },
    {
      "anonymous": false,
      "inputs": [
        {
          "indexed": false,
          "internalType": "uint256",
          "name": "sku",
          "type": "uint256"
        }
      ],
      "name": "LogShipped",
      "type": "event"
    },
    {
      "inputs": [
        {
          "internalType": "address",
          "name": "",
          "type": "address"
        }
      ],
      "name": "balances",
      "outputs": [
        {
          "internalType": "uint256",
          "name": "",
          "type": "uint256"
        }
      ],
      "stateMutability": "view",
      "type": "function"
    },
    {
      "inputs": [
        {
          "internalType": "uint256",
          "name": "",
          "type": "uint256"
        }
      ],
      "name": "items",
      "outputs": [
        {
          "internalType": "string",
          "name": "name",
          "type": "string"
        },
        {
          "internalType": "uint256",
          "name": "sku",
          "type": "uint256"
        },
        {
          "internalType": "uint256",
          "name": "price",
          "type": "uint256"
        },
        {
          "internalType": "enum SupplyChain.State",
          "name": "state",
          "type": "uint8"
        },
        {
          "internalType": "address payable",
          "name": "sender",
          "type": "address"
        },
        {
          "internalType": "address payable",
          "name": "receiver",
          "type": "address"
        },
        {
          "internalType": "address payable",
          "name": "shipper",
          "type": "address"
        }
      ],
      "stateMutability": "view",
      "type": "function"
    },
    {
      "inputs": [],
      "name": "owner",
      "outputs": [
        {
          "internalType": "address",
          "name": "",
          "type": "address"
        }
      ],
      "stateMutability": "view",
      "type": "function"
    },
    {
      "inputs": [
        {
          "internalType": "address",
          "name": "dest",
          "type": "address"
        }
      ],
      "name": "payments",
      "outputs": [
        {
          "internalType": "uint256",
          "name": "",
          "type": "uint256"
        }
      ],
      "stateMutability": "view",
      "type": "function"
    },
    {
      "inputs": [],
      "name": "skuCount",
      "outputs": [
        {
          "internalType": "uint256",
          "name": "",
          "type": "uint256"
        }
      ],
      "stateMutability": "view",
      "type": "function"
    },
    {
      "inputs": [
        {
          "internalType": "address payable",
          "name": "payee",
          "type": "address"
        }
      ],
      "name": "withdrawPayments",
      "outputs": [],
      "stateMutability": "nonpayable",
      "type": "function"
    },
    {
      "inputs": [
        {
          "internalType": "string",
          "name": "_name",
          "type": "string"
        },
        {
          "internalType": "uint256",
          "name": "_price",
          "type": "uint256"
        },
        {
          "internalType": "address payable",
          "name": "_receiver",
          "type": "address"
        },
        {
          "internalType": "address payable",
          "name": "_shipper",
          "type": "address"
        }
      ],
      "name": "addItem",
      "outputs": [
        {
          "internalType": "bool",
          "name": "",
          "type": "bool"
        }
      ],
      "stateMutability": "payable",
      "type": "function"
    },
    {
      "inputs": [
        {
          "internalType": "uint256",
          "name": "sku",
          "type": "uint256"
        }
      ],
      "name": "shipItem",
      "outputs": [],
      "stateMutability": "nonpayable",
      "type": "function"
    },
    {
      "inputs": [
        {
          "internalType": "uint256",
          "name": "sku",
          "type": "uint256"
        }
      ],
      "name": "receiveItem",
      "outputs": [],
      "stateMutability": "nonpayable",
      "type": "function"
    },
    {
      "inputs": [
        {
          "internalType": "uint256",
          "name": "sku",
          "type": "uint256"
        }
      ],
      "name": "payShipper",
      "outputs": [],
      "stateMutability": "nonpayable",
      "type": "function"
    },
    {
      "inputs": [
        {
          "internalType": "uint256",
          "name": "_sku",
          "type": "uint256"
        }
      ],
      "name": "fetchItem",
      "outputs": [
        {
          "internalType": "string",
          "name": "name",
          "type": "string"
        },
        {
          "internalType": "uint256",
          "name": "sku",
          "type": "uint256"
        },
        {
          "internalType": "uint256",
          "name": "price",
          "type": "uint256"
        },
        {
          "internalType": "uint256",
          "name": "state",
          "type": "uint256"
        },
        {
          "internalType": "address",
          "name": "sender",
          "type": "address"
        },
        {
          "internalType": "address",
          "name": "receiver",
          "type": "address"
        },
        {
          "internalType": "address",
          "name": "shipper",
          "type": "address"
        }
      ],
      "stateMutability": "view",
      "type": "function"
    },
    {
      "inputs": [],
      "name": "getBalance",
      "outputs": [
        {
          "internalType": "uint256",
          "name": "",
          "type": "uint256"
        }
      ],
      "stateMutability": "view",
      "type": "function"
    }
  ],
  "bytecode": "0x60a060405234801561001057600080fd5b5060405161001d90610072565b604051809103906000f080158015610039573d6000803e3d6000fd5b5073ffffffffffffffffffffffffffffffffffffffff1660808173ffffffffffffffffffffffffffffffffffffffff168152505061007f565b610d1680611c5983390190565b608051611bb16100a86000396000818161062901528181610d560152610f1b0152611bb16000f3fe6080604052600436106100a65760003560e01c8063a26be99911610064578063a26be999146101c2578063ad4b9cfb146101eb578063bd2f46cd1461022e578063bfb231d214610257578063e2982c211461029a578063f61c899a146102d7576100a6565b80628f07d0146100ab57806312065fe0146100db578063227024731461010657806327e235e31461013157806331b3eb941461016e5780638da5cb5b14610197575b600080fd5b6100c560048036038101906100c0919061123a565b610300565b6040516100d291906112d8565b60405180910390f35b3480156100e757600080fd5b506100f06105ea565b6040516100fd9190611302565b60405180910390f35b34801561011257600080fd5b5061011b610609565b6040516101289190611302565b60405180910390f35b34801561013d57600080fd5b506101586004803603810190610153919061135b565b61060f565b6040516101659190611302565b60405180910390f35b34801561017a57600080fd5b5061019560048036038101906101909190611388565b610627565b005b3480156101a357600080fd5b506101ac6106b5565b6040516101b991906113c4565b60405180910390f35b3480156101ce57600080fd5b506101e960048036038101906101e491906113df565b6106d9565b005b3480156101f757600080fd5b50610212600480360381019061020d91906113df565b610817565b6040516102259796959493929190611494565b60405180910390f35b34801561023a57600080fd5b50610255600480360381019061025091906113df565b6109e3565b005b34801561026357600080fd5b5061027e600480360381019061027991906113df565b610c1b565b6040516102919796959493929190611590565b60405180910390f35b3480156102a657600080fd5b506102c160048036038101906102bc919061135b565b610d52565b6040516102ce9190611302565b60405180910390f35b3480156102e357600080fd5b506102fe60048036038101906102f991906113df565b610df5565b005b60006040518060e001604052808681526020016001548152602001858152602001600060038111156103355761033461150a565b5b81526020013373ffffffffffffffffffffffffffffffffffffffff1681526020018473ffffffffffffffffffffffffffffffffffffffff1681526020018373ffffffffffffffffffffffffffffffffffffffff1681525060026000600154815260200190815260200160002060008201518160000190805190602001906103bd929190610fa9565b50602082015181600101556040820151816002015560608201518160030160006101000a81548160ff021916908360038111156103fd576103fc61150a565b5b021790555060808201518160030160016101000a81548173ffffffffffffffffffffffffffffffffffffffff021916908373ffffffffffffffffffffffffffffffffffffffff16021790555060a08201518160040160006101000a81548173ffffffffffffffffffffffffffffffffffffffff021916908373ffffffffffffffffffffffffffffffffffffffff16021790555060c08201518160050160006101000a81548173ffffffffffffffffffffffffffffffffffffffff021916908373ffffffffffffffffffffffffffffffffffffffff1602179055509050507f40e4700cf5fbb8ced8bd5fda002c9efe8bebf3087eb525f34c818d608932f4ba60026000600154815260200190815260200160002060405161051d91906118cb565b60405180910390a17f68115c2157c11331c6df15a99923b0f8bd92bfd0be2df04f7f36c145dc2473e36001546040516105569190611302565b60405180910390a17fac020a209791e2243482cf85c484e30a3ed8965960f440485c94c46aaa3c774e823373ffffffffffffffffffffffffffffffffffffffff16316040516105a692919061194c565b60405180910390a1834711156105dd576105c08285610f19565b600180546105ce91906119a4565b600181905550600190506105e2565b600090505b949350505050565b60003373ffffffffffffffffffffffffffffffffffffffff1631905090565b60015481565b60036020528060005260406000206000915090505481565b7f000000000000000000000000000000000000000000000000000000000000000073ffffffffffffffffffffffffffffffffffffffff166351cff8d9826040518263ffffffff1660e01b815260040161068091906119fa565b600060405180830381600087803b15801561069a57600080fd5b505af11580156106ae573d6000803e3d6000fd5b5050505050565b60008054906101000a900473ffffffffffffffffffffffffffffffffffffffff1681565b80600160038111156106ee576106ed61150a565b5b6002600083815260200190815260200160002060030160009054906101000a900460ff1660038111156107245761072361150a565b5b1461072e57600080fd5b6002600083815260200190815260200160002060040160009054906101000a900473ffffffffffffffffffffffffffffffffffffffff168073ffffffffffffffffffffffffffffffffffffffff163373ffffffffffffffffffffffffffffffffffffffff161461079d57600080fd5b600280600085815260200190815260200160002060030160006101000a81548160ff021916908360038111156107d6576107d561150a565b5b02179055507f5a98827d06afe0e04647b3aed26f1ffb77171ad9ac41603c4ef623a6638798c18360405161080a9190611302565b60405180910390a1505050565b606060008060008060008060026000898152602001908152602001600020600001805461084390611635565b80601f016020809104026020016040519081016040528092919081815260200182805461086f90611635565b80156108bc5780601f10610891576101008083540402835291602001916108bc565b820191906000526020600020905b81548152906001019060200180831161089f57829003601f168201915b5050505050965060026000898152602001908152602001600020600101549550600260008981526020019081526020016000206002015494506002600089815260200190815260200160002060030160009054906101000a900460ff16600381111561092b5761092a61150a565b5b93506002600089815260200190815260200160002060030160019054906101000a900473ffffffffffffffffffffffffffffffffffffffff1692506002600089815260200190815260200160002060040160009054906101000a900473ffffffffffffffffffffffffffffffffffffffff1691506002600089815260200190815260200160002060050160009054906101000a900473ffffffffffffffffffffffffffffffffffffffff169050919395979092949650565b80600260038111156109f8576109f761150a565b5b6002600083815260200190815260200160002060030160009054906101000a900460ff166003811115610a2e57610a2d61150a565b5b14610a3857600080fd5b60026003811115610a4c57610a4b61150a565b5b6002600084815260200190815260200160002060030160009054906101000a900460ff166003811115610a8257610a8161150a565b5b1415610ac3576040517f08c379a0000000000000000000000000000000000000000000000000000000008152600401610aba90611a87565b60405180910390fd5b3373ffffffffffffffffffffffffffffffffffffffff166002600084815260200190815260200160002060050160009054906101000a900473ffffffffffffffffffffffffffffffffffffffff1673ffffffffffffffffffffffffffffffffffffffff161415610b68576040517f08c379a0000000000000000000000000000000000000000000000000000000008152600401610b5f90611b19565b60405180910390fd5b60026000838152602001908152602001600020600201546002600084815260200190815260200160002060030160019054906101000a900473ffffffffffffffffffffffffffffffffffffffff1673ffffffffffffffffffffffffffffffffffffffff16311015610bd857600080fd5b60036002600084815260200190815260200160002060030160006101000a81548160ff02191690836003811115610c1257610c1161150a565b5b02179055505050565b6002602052806000526040600020600091509050806000018054610c3e90611635565b80601f0160208091040260200160405190810160405280929190818152602001828054610c6a90611635565b8015610cb75780601f10610c8c57610100808354040283529160200191610cb7565b820191906000526020600020905b815481529060010190602001808311610c9a57829003601f168201915b5050505050908060010154908060020154908060030160009054906101000a900460ff16908060030160019054906101000a900473ffffffffffffffffffffffffffffffffffffffff16908060040160009054906101000a900473ffffffffffffffffffffffffffffffffffffffff16908060050160009054906101000a900473ffffffffffffffffffffffffffffffffffffffff16905087565b60007f000000000000000000000000000000000000000000000000000000000000000073ffffffffffffffffffffffffffffffffffffffff1663e3a9db1a836040518263ffffffff1660e01b8152600401610dad91906113c4565b602060405180830381865afa158015610dca573d6000803e3d6000fd5b505050506040513d601f19601f82011682018060405250810190610dee9190611b4e565b9050919050565b8060006003811115610e0a57610e0961150a565b5b6002600083815260200190815260200160002060030160009054906101000a900460ff166003811115610e4057610e3f61150a565b5b14610e4a57600080fd5b336002600084815260200190815260200160002060050160006101000a81548173ffffffffffffffffffffffffffffffffffffffff021916908373ffffffffffffffffffffffffffffffffffffffff16021790555060016002600084815260200190815260200160002060030160006101000a81548160ff02191690836003811115610ed957610ed861150a565b5b02179055507feaf695929fec8154f0eafe7248c0e16855eb9ad09e623be92f669e544d53e85682604051610f0d9190611302565b60405180910390a15050565b7f000000000000000000000000000000000000000000000000000000000000000073ffffffffffffffffffffffffffffffffffffffff1663f340fa0182846040518363ffffffff1660e01b8152600401610f7391906113c4565b6000604051808303818588803b158015610f8c57600080fd5b505af1158015610fa0573d6000803e3d6000fd5b50505050505050565b828054610fb590611635565b90600052602060002090601f016020900481019282610fd7576000855561101e565b82601f10610ff057805160ff191683800117855561101e565b8280016001018555821561101e579182015b8281111561101d578251825591602001919060010190611002565b5b50905061102b919061102f565b5090565b5b80821115611048576000816000905550600101611030565b5090565b6000604051905090565b600080fd5b600080fd5b600080fd5b600080fd5b6000601f19601f8301169050919050565b7f4e487b7100000000000000000000000000000000000000000000000000000000600052604160045260246000fd5b6110b38261106a565b810181811067ffffffffffffffff821117156110d2576110d161107b565b5b80604052505050565b60006110e561104c565b90506110f182826110aa565b919050565b600067ffffffffffffffff8211156111115761111061107b565b5b61111a8261106a565b9050602081019050919050565b82818337600083830152505050565b6000611149611144846110f6565b6110db565b90508281526020810184848401111561116557611164611065565b5b611170848285611127565b509392505050565b600082601f83011261118d5761118c611060565b5b813561119d848260208601611136565b91505092915050565b6000819050919050565b6111b9816111a6565b81146111c457600080fd5b50565b6000813590506111d6816111b0565b92915050565b600073ffffffffffffffffffffffffffffffffffffffff82169050919050565b6000611207826111dc565b9050919050565b611217816111fc565b811461122257600080fd5b50565b6000813590506112348161120e565b92915050565b6000806000806080858703121561125457611253611056565b5b600085013567ffffffffffffffff8111156112725761127161105b565b5b61127e87828801611178565b945050602061128f878288016111c7565b93505060406112a087828801611225565b92505060606112b187828801611225565b91505092959194509250565b60008115159050919050565b6112d2816112bd565b82525050565b60006020820190506112ed60008301846112c9565b92915050565b6112fc816111a6565b82525050565b600060208201905061131760008301846112f3565b92915050565b6000611328826111dc565b9050919050565b6113388161131d565b811461134357600080fd5b50565b6000813590506113558161132f565b92915050565b60006020828403121561137157611370611056565b5b600061137f84828501611346565b91505092915050565b60006020828403121561139e5761139d611056565b5b60006113ac84828501611225565b91505092915050565b6113be8161131d565b82525050565b60006020820190506113d960008301846113b5565b92915050565b6000602082840312156113f5576113f4611056565b5b6000611403848285016111c7565b91505092915050565b600081519050919050565b600082825260208201905092915050565b60005b8381101561144657808201518184015260208101905061142b565b83811115611455576000848401525b50505050565b60006114668261140c565b6114708185611417565b9350611480818560208601611428565b6114898161106a565b840191505092915050565b600060e08201905081810360008301526114ae818a61145b565b90506114bd60208301896112f3565b6114ca60408301886112f3565b6114d760608301876112f3565b6114e460808301866113b5565b6114f160a08301856113b5565b6114fe60c08301846113b5565b98975050505050505050565b7f4e487b7100000000000000000000000000000000000000000000000000000000600052602160045260246000fd5b6004811061154a5761154961150a565b5b50565b600081905061155b82611539565b919050565b600061156b8261154d565b9050919050565b61157b81611560565b82525050565b61158a816111fc565b82525050565b600060e08201905081810360008301526115aa818a61145b565b90506115b960208301896112f3565b6115c660408301886112f3565b6115d36060830187611572565b6115e06080830186611581565b6115ed60a0830185611581565b6115fa60c0830184611581565b98975050505050505050565b7f4e487b7100000000000000000000000000000000000000000000000000000000600052602260045260246000fd5b6000600282049050600182168061164d57607f821691505b6020821081141561166157611660611606565b5b50919050565b600082825260208201905092915050565b60008190508160005260206000209050919050565b6000815461169a81611635565b6116a48186611667565b945060018216600081146116bf57600181146116d157611704565b60ff1983168652602086019350611704565b6116da85611678565b60005b838110156116fc578154818901526001820191506020810190506116dd565b808801955050505b50505092915050565b60008160001c9050919050565b6000819050919050565b60006117376117328361170d565b61171a565b9050919050565b611747816111a6565b82525050565b600060ff82169050919050565b600061176d6117688361170d565b61174d565b9050919050565b61177d81611560565b82525050565b60008160081c9050919050565b600073ffffffffffffffffffffffffffffffffffffffff82169050919050565b60006117c36117be83611783565b611790565b9050919050565b6117d3816111fc565b82525050565b60006117ec6117e78361170d565b611790565b9050919050565b600060e0830160008084018583036000870152611810838261168d565b9250506001840154905061182381611724565b611830602087018261173e565b506002840154905061184181611724565b61184e604087018261173e565b506003840154905061185f8161175a565b61186c6060870182611774565b50611876816117b0565b61188360808701826117ca565b5060048401549050611894816117d9565b6118a160a08701826117ca565b50600584015490506118b2816117d9565b6118bf60c08701826117ca565b50819250505092915050565b600060208201905081810360008301526118e581846117f3565b905092915050565b6000819050919050565b600061191261190d611908846111dc565b6118ed565b6111dc565b9050919050565b6000611924826118f7565b9050919050565b600061193682611919565b9050919050565b6119468161192b565b82525050565b6000604082019050611961600083018561193d565b61196e60208301846112f3565b9392505050565b7f4e487b7100000000000000000000000000000000000000000000000000000000600052601160045260246000fd5b60006119af826111a6565b91506119ba836111a6565b9250827fffffffffffffffffffffffffffffffffffffffffffffffffffffffffffffffff038211156119ef576119ee611975565b5b828201905092915050565b6000602082019050611a0f6000830184611581565b92915050565b7f466972737420796f75206861766520746f206c656e6420746865207061636b6160008201527f6765000000000000000000000000000000000000000000000000000000000000602082015250565b6000611a71602283611417565b9150611a7c82611a15565b604082019050919050565b60006020820190508181036000830152611aa081611a64565b9050919050565b7f5468652073656e64657220697320746865206f6e6c79206f6e652077686f206360008201527f616e206d616b6520746865207472616e73616374696f6e000000000000000000602082015250565b6000611b03603783611417565b9150611b0e82611aa7565b604082019050919050565b60006020820190508181036000830152611b3281611af6565b9050919050565b600081519050611b48816111b0565b92915050565b600060208284031215611b6457611b63611056565b5b6000611b7284828501611b39565b9150509291505056fea2646970667358221220b087c80d5ed782f314166b68b3bdf8f5c88bc48657e9c622a24d142c9160379164736f6c634300080a0033608060405234801561001057600080fd5b5061002d61002261003260201b60201c565b61003a60201b60201c565b6100fe565b600033905090565b60008060009054906101000a900473ffffffffffffffffffffffffffffffffffffffff169050816000806101000a81548173ffffffffffffffffffffffffffffffffffffffff021916908373ffffffffffffffffffffffffffffffffffffffff1602179055508173ffffffffffffffffffffffffffffffffffffffff168173ffffffffffffffffffffffffffffffffffffffff167f8be0079c531659141344cd1fd0a4f28419497f9722a3daafe3b4186f6b6457e060405160405180910390a35050565b610c098061010d6000396000f3fe6080604052600436106100555760003560e01c806351cff8d91461005a578063715018a6146100835780638da5cb5b1461009a578063e3a9db1a146100c5578063f2fde38b14610102578063f340fa011461012b575b600080fd5b34801561006657600080fd5b50610081600480360381019061007c9190610805565b610147565b005b34801561008f57600080fd5b506100986102c7565b005b3480156100a657600080fd5b506100af61034f565b6040516100bc9190610853565b60405180910390f35b3480156100d157600080fd5b506100ec60048036038101906100e7919061089a565b610378565b6040516100f991906108e0565b60405180910390f35b34801561010e57600080fd5b506101296004803603810190610124919061089a565b6103c1565b005b6101456004803603810190610140919061089a565b6104b9565b005b61014f6105e2565b73ffffffffffffffffffffffffffffffffffffffff1661016d61034f565b73ffffffffffffffffffffffffffffffffffffffff16146101c3576040517f08c379a00000000000000000000000000000000000000000000000000000000081526004016101ba90610958565b60405180910390fd5b6000600160008373ffffffffffffffffffffffffffffffffffffffff1673ffffffffffffffffffffffffffffffffffffffff1681526020019081526020016000205490506000600160008473ffffffffffffffffffffffffffffffffffffffff1673ffffffffffffffffffffffffffffffffffffffff16815260200190815260200160002081905550610275818373ffffffffffffffffffffffffffffffffffffffff166105ea90919063ffffffff16565b8173ffffffffffffffffffffffffffffffffffffffff167f7084f5476618d8e60b11ef0d7d3f06914655adb8793e28ff7f018d4c76d505d5826040516102bb91906108e0565b60405180910390a25050565b6102cf6105e2565b73ffffffffffffffffffffffffffffffffffffffff166102ed61034f565b73ffffffffffffffffffffffffffffffffffffffff1614610343576040517f08c379a000000000000000000000000000000000000000000000000000000000815260040161033a90610958565b60405180910390fd5b61034d60006106de565b565b60008060009054906101000a900473ffffffffffffffffffffffffffffffffffffffff16905090565b6000600160008373ffffffffffffffffffffffffffffffffffffffff1673ffffffffffffffffffffffffffffffffffffffff168152602001908152602001600020549050919050565b6103c96105e2565b73ffffffffffffffffffffffffffffffffffffffff166103e761034f565b73ffffffffffffffffffffffffffffffffffffffff161461043d576040517f08c379a000000000000000000000000000000000000000000000000000000000815260040161043490610958565b60405180910390fd5b600073ffffffffffffffffffffffffffffffffffffffff168173ffffffffffffffffffffffffffffffffffffffff1614156104ad576040517f08c379a00000000000000000000000000000000000000000000000000000000081526004016104a4906109ea565b60405180910390fd5b6104b6816106de565b50565b6104c16105e2565b73ffffffffffffffffffffffffffffffffffffffff166104df61034f565b73ffffffffffffffffffffffffffffffffffffffff1614610535576040517f08c379a000000000000000000000000000000000000000000000000000000000815260040161052c90610958565b60405180910390fd5b600034905080600160008473ffffffffffffffffffffffffffffffffffffffff1673ffffffffffffffffffffffffffffffffffffffff16815260200190815260200160002060008282546105899190610a39565b925050819055508173ffffffffffffffffffffffffffffffffffffffff167f2da466a7b24304f47e87fa2e1e5a81b9831ce54fec19055ce277ca2f39ba42c4826040516105d691906108e0565b60405180910390a25050565b600033905090565b8047101561062d576040517f08c379a000000000000000000000000000000000000000000000000000000000815260040161062490610adb565b60405180910390fd5b60008273ffffffffffffffffffffffffffffffffffffffff168260405161065390610b2c565b60006040518083038185875af1925050503d8060008114610690576040519150601f19603f3d011682016040523d82523d6000602084013e610695565b606091505b50509050806106d9576040517f08c379a00000000000000000000000000000000000000000000000000000000081526004016106d090610bb3565b60405180910390fd5b505050565b60008060009054906101000a900473ffffffffffffffffffffffffffffffffffffffff169050816000806101000a81548173ffffffffffffffffffffffffffffffffffffffff021916908373ffffffffffffffffffffffffffffffffffffffff1602179055508173ffffffffffffffffffffffffffffffffffffffff168173ffffffffffffffffffffffffffffffffffffffff167f8be0079c531659141344cd1fd0a4f28419497f9722a3daafe3b4186f6b6457e060405160405180910390a35050565b600080fd5b600073ffffffffffffffffffffffffffffffffffffffff82169050919050565b60006107d2826107a7565b9050919050565b6107e2816107c7565b81146107ed57600080fd5b50565b6000813590506107ff816107d9565b92915050565b60006020828403121561081b5761081a6107a2565b5b6000610829848285016107f0565b91505092915050565b600061083d826107a7565b9050919050565b61084d81610832565b82525050565b60006020820190506108686000830184610844565b92915050565b61087781610832565b811461088257600080fd5b50565b6000813590506108948161086e565b92915050565b6000602082840312156108b0576108af6107a2565b5b60006108be84828501610885565b91505092915050565b6000819050919050565b6108da816108c7565b82525050565b60006020820190506108f560008301846108d1565b92915050565b600082825260208201905092915050565b7f4f776e61626c653a2063616c6c6572206973206e6f7420746865206f776e6572600082015250565b60006109426020836108fb565b915061094d8261090c565b602082019050919050565b6000602082019050818103600083015261097181610935565b9050919050565b7f4f776e61626c653a206e6577206f776e657220697320746865207a65726f206160008201527f6464726573730000000000000000000000000000000000000000000000000000602082015250565b60006109d46026836108fb565b91506109df82610978565b604082019050919050565b60006020820190508181036000830152610a03816109c7565b9050919050565b7f4e487b7100000000000000000000000000000000000000000000000000000000600052601160045260246000fd5b6000610a44826108c7565b9150610a4f836108c7565b9250827fffffffffffffffffffffffffffffffffffffffffffffffffffffffffffffffff03821115610a8457610a83610a0a565b5b828201905092915050565b7f416464726573733a20696e73756666696369656e742062616c616e6365000000600082015250565b6000610ac5601d836108fb565b9150610ad082610a8f565b602082019050919050565b60006020820190508181036000830152610af481610ab8565b9050919050565b600081905092915050565b50565b6000610b16600083610afb565b9150610b2182610b06565b600082019050919050565b6000610b3782610b09565b9150819050919050565b7f416464726573733a20756e61626c6520746f2073656e642076616c75652c207260008201527f6563697069656e74206d61792068617665207265766572746564000000000000602082015250565b6000610b9d603a836108fb565b9150610ba882610b41565b604082019050919050565b60006020820190508181036000830152610bcc81610b90565b905091905056fea26469706673582212205129b7a3f85a5490faa843d165483789a2bfba2f3e8947564cc0ac8e4649629564736f6c634300080a0033",
  "immutableReferences": {
    "110": [
      {
        "length": 32,
        "start": 1577
      },
      {
        "length": 32,
        "start": 3414
      },
      {
        "length": 32,
        "start": 3867
      }
    ]
  },
  "source": "pragma solidity ^0.8.0;\r\n\r\nimport \"@openzeppelin/contracts/security/PullPayment.sol\";\r\n\r\ncontract SupplyChain is PullPayment {\r\n\r\n  // <owner>\r\n  address public owner;\r\n\r\n  // <skuCount>\r\n  uint public skuCount;\r\n\r\n  // <items mapping>\r\n  mapping(uint => Item) public items;\r\n\r\n  mapping(address => uint)  public balances;\r\n\r\n  // <enum State: ForSale, Sold, Shipped, Received>\r\n  // ForSale,\r\n  // Sold,\r\n  enum State {\r\n    ForShipment,\r\n    Shipped,\r\n    Received, \r\n    ShipperPaid\r\n  }\r\n\r\n  // <struct Item: name, sku, price, state, sender, and receiver>\r\n  struct Item {\r\n    string name;\r\n    uint sku;\r\n    uint price;\r\n    State state;\r\n    address payable sender;\r\n    address payable receiver;\r\n    address payable shipper; \r\n  }\r\n\r\n  struct Balance {\r\n    uint charged;\r\n    uint toCollect;\r\n  }\r\n  /* \r\n   * Events\r\n   */\r\n\r\n  // // <LogForSale event: sku arg>\r\n  // event LogForSale(uint sku);\r\n\r\n  // // <LogSold event: sku arg>\r\n  // event LogSold(uint sku);\r\n\r\n  // <logForShipment event: sku arg>\r\n  event LogForShipment(uint sku);\r\n\r\n  // <LogShipped event: sku arg>\r\n  event LogShipped(uint sku);\r\n\r\n  // <LogReceived event: sku arg>\r\n  event LogReceived(uint sku);\r\n\r\n  event AddMoneyToAccount(address _address, uint balance);  \r\n\r\n  event ItemChange(Item item);\r\n\r\n  /* \r\n   * Modifiers\r\n   */\r\n\r\n  // Create a modifer, `isOwner` that checks if the msg.sender is the owner of the contract\r\n\r\n  // <modifier: isOwner\r\n  modifier isOwner (address _address) { \r\n    require (msg.sender == owner); \r\n    _;\r\n  }\r\n\r\n  modifier verifyCaller (address _address) { \r\n    require (msg.sender == _address); \r\n    _;\r\n  }\r\n\r\n  modifier paidEnough(uint _price) { \r\n    require(msg.value >= _price); \r\n    _;\r\n  }\r\n\r\n  // modifier checkValue(uint _sku) {\r\n  //   //refund them after pay for item (why it is before, _ checks for logic before func)\r\n  //   _;\r\n  //   uint _price = items[_sku].price;\r\n  //   uint amountToRefund = msg.value - _price;\r\n  //   items[_sku].receiver.transfer(amountToRefund);\r\n  // }\r\n\r\n  // modifier forSale()\r\n  //  modifier forSale(uint _sku) {\r\n  //   require(items[_sku].state == State.ForSale); \r\n  //   require(items[_sku].sender != address(0)); \r\n  //   _;\r\n  // }\r\n\r\n  //  modifier sold(uint _sku) {\r\n  //   require(items[_sku].state == State.Sold); \r\n  //   _;\r\n  // }\r\n  // modifier sold(uint _sku) \r\n  // modifier shipped(uint _sku) \r\n\r\n  modifier forShipment (uint _sku) {\r\n    require(items[_sku].state == State.ForShipment); \r\n     //   require(items[_sku].sender != address(0)); \r\n    _;\r\n  }\r\n   modifier shipped(uint _sku) {\r\n    require(items[_sku].state == State.Shipped); \r\n    _;\r\n  }\r\n  // modifier received(uint _sku) \r\n   modifier received(uint _sku) {\r\n    require(items[_sku].state == State.Received); \r\n    _;\r\n  }\r\n\r\n  // constructor()  PullPayment()public{\r\n  //   // 1. Set the owner to the transaction sender\r\n  //   owner = msg.sender;\r\n  //   // 2. Initialize the sku count to 0. Question, is this necessary?\r\n  //   skuCount = 0;\r\n  // }\r\n\r\n  function addItem(string memory _name, uint _price, address payable _receiver, address payable _shipper) public payable returns (bool) {\r\n    items[skuCount] = Item({\r\n      name: _name, \r\n      sku: skuCount, \r\n      price: _price, \r\n      state: State.ForShipment, \r\n      sender: payable(msg.sender), \r\n      receiver: payable(_receiver),\r\n      shipper: payable(_shipper)\r\n    });\r\n\r\n    emit ItemChange(items[skuCount]);\r\n    \r\n    emit LogForShipment(skuCount);\r\n      emit AddMoneyToAccount(_shipper, msg.sender.balance);\r\n    if(address(this).balance > _price ){\r\n      _asyncTransfer(_shipper, _price );\r\n      skuCount = skuCount + 1;\r\n      return true;\r\n    }else{\r\n      return false;\r\n    }\r\n    \r\n  }\r\n\r\n  // function _asyncTransfer(address dest, uint256 amount) internal override{\r\n  //   emit AddMoneyToAccount(dest, amount);\r\n  //   super._asyncTransfer(dest, amount);\r\n  // }\r\n\r\n  function shipItem(uint sku) public forShipment(sku) {\r\n    items[sku].shipper = payable(msg.sender);\r\n    items[sku].state = State.Shipped;\r\n    emit LogShipped(sku);\r\n  }\r\n\r\n  function receiveItem(uint sku) public shipped(sku) verifyCaller(items[sku].receiver){\r\n    items[sku].state = State.Received;\r\n    emit LogReceived(sku);\r\n  }\r\n\r\n  function payShipper(uint sku) public received(sku) {\r\n    require(items[sku].state != State.Received, \"First you have to lend the package\");\r\n    require(items[sku].shipper != msg.sender, \"The sender is the only one who can make the transaction\");\r\n    require(address(items[sku].sender).balance >= items[sku].price);\r\n    // sendMoney(items[sku].shipper, items[sku].price);\r\n    items[sku].state = State.ShipperPaid;\r\n  }\r\n\r\n   function fetchItem(uint _sku) public view \r\n     returns (string memory name, uint sku, uint price, uint state, address sender, address receiver, address shipper)\r\n   {\r\n     name = items[_sku].name; \r\n     sku = items[_sku].sku; \r\n     price = items[_sku].price; \r\n     state = uint(items[_sku].state); \r\n     sender = items[_sku].sender; \r\n     receiver = items[_sku].receiver; \r\n     shipper = items[_sku].shipper;\r\n     return (name, sku, price, state, sender, receiver, shipper); \r\n  } \r\n\r\n   function getBalance() public view \r\n    returns (uint)\r\n  {\r\n    return (msg.sender.balance);\r\n  }\r\n\r\n  // function sendMoney(address payable _to, uint ethValue) public payable{\r\n  //   // Call returns a boolean value indicating success or failure.\r\n  //   // This is the current recommended method to use.\r\n  //   (bool sent, bytes memory data) = _to.call{value: ethValue}(\"\");\r\n  //   require(sent, \"Failed to send Ether\");\r\n  // }\r\n\r\n\r\n  // https://docs.openzeppelin.com/contracts/4.x/api/security\r\n  // https://github.com/OpenZeppelin/openzeppelin-contracts/blob/master/README.md#installing-openzeppelin\r\n}\r\n",
  "sourcePath": "C:\\Users\\usuario\\cryptos\\blockchain-developer-bootcamp-final-project\\contracts\\SupplyChain.sol",
  "compiler": {
    "name": "solc",
    "version": "0.8.10+commit.fc410830.Emscripten.clang"
  },
  "schemaVersion": "3.4.3",
  "updatedAt": "2021-11-24T16:34:07.990Z",
  "devdoc": {
    "kind": "dev",
    "methods": {
      "payments(address)": {
        "details": "Returns the payments owed to an address.",
        "params": {
          "dest": "The creditor's address."
        }
      },
      "withdrawPayments(address)": {
        "details": "Withdraw accumulated payments, forwarding all gas to the recipient. Note that _any_ account can call this function, not just the `payee`. This means that contracts unaware of the `PullPayment` protocol can still receive funds this way, by having a separate account call {withdrawPayments}. WARNING: Forwarding all gas opens the door to reentrancy vulnerabilities. Make sure you trust the recipient, or are either following the checks-effects-interactions pattern or using {ReentrancyGuard}.",
        "params": {
          "payee": "Whose payments will be withdrawn."
        }
      }
    },
    "version": 1
  },
  "userdoc": {
    "kind": "user",
    "methods": {},
    "version": 1
  }
}